{
  "_format": "hh-sol-artifact-1",
  "contractName": "ADIAgentPayments",
  "sourceName": "contracts/ADIAgentPayments.sol",
  "abi": [
    {
      "inputs": [
        {
          "internalType": "address",
          "name": "_treasury",
          "type": "address"
        },
        {
          "internalType": "address",
          "name": "_complianceOfficer",
          "type": "address"
        }
      ],
      "stateMutability": "nonpayable",
      "type": "constructor"
    },
    {
      "anonymous": false,
      "inputs": [
        {
          "indexed": true,
          "internalType": "uint256",
          "name": "serviceId",
          "type": "uint256"
        },
        {
          "indexed": false,
          "internalType": "string",
          "name": "agentName",
          "type": "string"
        },
        {
          "indexed": false,
          "internalType": "uint256",
          "name": "priceADI",
          "type": "uint256"
        }
      ],
      "name": "AgentServiceRegistered",
      "type": "event"
    },
    {
      "anonymous": false,
      "inputs": [
        {
          "indexed": true,
          "internalType": "uint256",
          "name": "paymentId",
          "type": "uint256"
        },
        {
          "indexed": true,
          "internalType": "address",
          "name": "originator",
          "type": "address"
        },
        {
          "indexed": false,
          "internalType": "string",
          "name": "originatorJurisdiction",
          "type": "string"
        },
        {
          "indexed": false,
          "internalType": "uint256",
          "name": "amount",
          "type": "uint256"
        },
        {
          "indexed": true,
          "internalType": "uint256",
          "name": "agentServiceId",
          "type": "uint256"
        },
        {
          "indexed": false,
          "internalType": "string",
          "name": "agentName",
          "type": "string"
        },
        {
          "indexed": false,
          "internalType": "uint256",
          "name": "timestamp",
          "type": "uint256"
        }
      ],
      "name": "CompliancePayment",
      "type": "event"
    },
    {
      "anonymous": false,
      "inputs": [
        {
          "indexed": true,
          "internalType": "uint256",
          "name": "paymentId",
          "type": "uint256"
        },
        {
          "indexed": false,
          "internalType": "string",
          "name": "hederaTopicId",
          "type": "string"
        },
        {
          "indexed": false,
          "internalType": "string",
          "name": "executionHash",
          "type": "string"
        },
        {
          "indexed": false,
          "internalType": "enum ADIAgentPayments.PaymentStatus",
          "name": "status",
          "type": "uint8"
        }
      ],
      "name": "ExecutionReceipt",
      "type": "event"
    },
    {
      "anonymous": false,
      "inputs": [
        {
          "indexed": true,
          "internalType": "address",
          "name": "user",
          "type": "address"
        },
        {
          "indexed": false,
          "internalType": "uint256",
          "name": "timestamp",
          "type": "uint256"
        }
      ],
      "name": "KYCRevoked",
      "type": "event"
    },
    {
      "anonymous": false,
      "inputs": [
        {
          "indexed": true,
          "internalType": "address",
          "name": "user",
          "type": "address"
        },
        {
          "indexed": false,
          "internalType": "string",
          "name": "jurisdiction",
          "type": "string"
        },
        {
          "indexed": false,
          "internalType": "uint256",
          "name": "tier",
          "type": "uint256"
        },
        {
          "indexed": false,
          "internalType": "uint256",
          "name": "timestamp",
          "type": "uint256"
        }
      ],
      "name": "KYCVerified",
      "type": "event"
    },
    {
      "anonymous": false,
      "inputs": [
        {
          "indexed": true,
          "internalType": "uint256",
          "name": "paymentId",
          "type": "uint256"
        },
        {
          "indexed": true,
          "internalType": "address",
          "name": "originator",
          "type": "address"
        },
        {
          "indexed": false,
          "internalType": "string",
          "name": "originatorJurisdiction",
          "type": "string"
        },
        {
          "indexed": false,
          "internalType": "address",
          "name": "beneficiary",
          "type": "address"
        },
        {
          "indexed": false,
          "internalType": "string",
          "name": "beneficiaryName",
          "type": "string"
        },
        {
          "indexed": false,
          "internalType": "uint256",
          "name": "amount",
          "type": "uint256"
        },
        {
          "indexed": false,
          "internalType": "string",
          "name": "purposeOfPayment",
          "type": "string"
        }
      ],
      "name": "TravelRuleRecord",
      "type": "event"
    },
    {
      "inputs": [],
      "name": "agentFiTreasury",
      "outputs": [
        {
          "internalType": "address",
          "name": "",
          "type": "address"
        }
      ],
      "stateMutability": "view",
      "type": "function"
    },
    {
      "inputs": [
        {
          "internalType": "uint256",
          "name": "",
          "type": "uint256"
        }
      ],
      "name": "agentServices",
      "outputs": [
        {
          "internalType": "string",
          "name": "agentName",
          "type": "string"
        },
        {
          "internalType": "uint256",
          "name": "priceADI",
          "type": "uint256"
        },
        {
          "internalType": "bool",
          "name": "active",
          "type": "bool"
        },
        {
          "internalType": "string",
          "name": "description",
          "type": "string"
        },
        {
          "internalType": "uint256",
          "name": "minKYCTier",
          "type": "uint256"
        },
        {
          "internalType": "uint256",
          "name": "totalExecutions",
          "type": "uint256"
        }
      ],
      "stateMutability": "view",
      "type": "function"
    },
    {
      "inputs": [
        {
          "internalType": "address[]",
          "name": "users",
          "type": "address[]"
        },
        {
          "internalType": "string[]",
          "name": "jurisdictions",
          "type": "string[]"
        },
        {
          "internalType": "uint256[]",
          "name": "tiers",
          "type": "uint256[]"
        },
        {
          "internalType": "string[]",
          "name": "complianceHashes",
          "type": "string[]"
        }
      ],
      "name": "batchVerifyKYC",
      "outputs": [],
      "stateMutability": "nonpayable",
      "type": "function"
    },
    {
      "inputs": [],
      "name": "complianceOfficer",
      "outputs": [
        {
          "internalType": "address",
          "name": "",
          "type": "address"
        }
      ],
      "stateMutability": "view",
      "type": "function"
    },
    {
      "inputs": [],
      "name": "getActiveServices",
      "outputs": [
        {
          "internalType": "uint256[]",
          "name": "ids",
          "type": "uint256[]"
        },
        {
          "components": [
            {
              "internalType": "string",
              "name": "agentName",
              "type": "string"
            },
            {
              "internalType": "uint256",
              "name": "priceADI",
              "type": "uint256"
            },
            {
              "internalType": "bool",
              "name": "active",
              "type": "bool"
            },
            {
              "internalType": "string",
              "name": "description",
              "type": "string"
            },
            {
              "internalType": "uint256",
              "name": "minKYCTier",
              "type": "uint256"
            },
            {
              "internalType": "uint256",
              "name": "totalExecutions",
              "type": "uint256"
            }
          ],
          "internalType": "struct ADIAgentPayments.AgentService[]",
          "name": "services",
          "type": "tuple[]"
        }
      ],
      "stateMutability": "view",
      "type": "function"
    },
    {
      "inputs": [],
      "name": "getComplianceStats",
      "outputs": [
        {
          "internalType": "uint256",
          "name": "_totalKYCUsers",
          "type": "uint256"
        },
        {
          "internalType": "uint256",
          "name": "_totalPayments",
          "type": "uint256"
        },
        {
          "internalType": "uint256",
          "name": "_totalVolumeADI",
          "type": "uint256"
        },
        {
          "internalType": "uint256",
          "name": "_serviceCount",
          "type": "uint256"
        }
      ],
      "stateMutability": "view",
      "type": "function"
    },
    {
      "inputs": [
        {
          "internalType": "uint256",
          "name": "paymentId",
          "type": "uint256"
        }
      ],
      "name": "getPaymentRecord",
      "outputs": [
        {
          "components": [
            {
              "internalType": "address",
              "name": "originator",
              "type": "address"
            },
            {
              "internalType": "string",
              "name": "originatorJurisdiction",
              "type": "string"
            },
            {
              "internalType": "uint256",
              "name": "originatorKYCTier",
              "type": "uint256"
            },
            {
              "internalType": "address",
              "name": "beneficiary",
              "type": "address"
            },
            {
              "internalType": "string",
              "name": "beneficiaryName",
              "type": "string"
            },
            {
              "internalType": "uint256",
              "name": "amount",
              "type": "uint256"
            },
            {
              "internalType": "uint256",
              "name": "timestamp",
              "type": "uint256"
            },
            {
              "internalType": "uint256",
              "name": "agentServiceId",
              "type": "uint256"
            },
            {
              "internalType": "string",
              "name": "agentName",
              "type": "string"
            },
            {
              "internalType": "string",
              "name": "hederaTopicId",
              "type": "string"
            },
            {
              "internalType": "string",
              "name": "executionHash",
              "type": "string"
            },
            {
              "internalType": "string",
              "name": "purposeOfPayment",
              "type": "string"
            },
            {
              "internalType": "enum ADIAgentPayments.PaymentStatus",
              "name": "status",
              "type": "uint8"
            }
          ],
          "internalType": "struct ADIAgentPayments.PaymentRecord",
          "name": "",
          "type": "tuple"
        }
      ],
      "stateMutability": "view",
      "type": "function"
    },
    {
      "inputs": [
        {
          "internalType": "address",
          "name": "user",
          "type": "address"
        }
      ],
      "name": "getUserProfile",
      "outputs": [
        {
          "internalType": "bool",
          "name": "isVerified",
          "type": "bool"
        },
        {
          "components": [
            {
              "internalType": "bool",
              "name": "verified",
              "type": "bool"
            },
            {
              "internalType": "string",
              "name": "jurisdiction",
              "type": "string"
            },
            {
              "internalType": "uint256",
              "name": "verifiedAt",
              "type": "uint256"
            },
            {
              "internalType": "uint256",
              "name": "tier",
              "type": "uint256"
            },
            {
              "internalType": "string",
              "name": "complianceHash",
              "type": "string"
            }
          ],
          "internalType": "struct ADIAgentPayments.KYCData",
          "name": "kyc",
          "type": "tuple"
        },
        {
          "internalType": "uint256",
          "name": "paymentHistoryCount",
          "type": "uint256"
        },
        {
          "internalType": "uint256[]",
          "name": "payments",
          "type": "uint256[]"
        }
      ],
      "stateMutability": "view",
      "type": "function"
    },
    {
      "inputs": [
        {
          "internalType": "address",
          "name": "",
          "type": "address"
        }
      ],
      "name": "kycRecords",
      "outputs": [
        {
          "internalType": "bool",
          "name": "verified",
          "type": "bool"
        },
        {
          "internalType": "string",
          "name": "jurisdiction",
          "type": "string"
        },
        {
          "internalType": "uint256",
          "name": "verifiedAt",
          "type": "uint256"
        },
        {
          "internalType": "uint256",
          "name": "tier",
          "type": "uint256"
        },
        {
          "internalType": "string",
          "name": "complianceHash",
          "type": "string"
        }
      ],
      "stateMutability": "view",
      "type": "function"
    },
    {
      "inputs": [
        {
          "internalType": "address",
          "name": "",
          "type": "address"
        }
      ],
      "name": "kycVerified",
      "outputs": [
        {
          "internalType": "bool",
          "name": "",
          "type": "bool"
        }
      ],
      "stateMutability": "view",
      "type": "function"
    },
    {
      "inputs": [],
      "name": "owner",
      "outputs": [
        {
          "internalType": "address",
          "name": "",
          "type": "address"
        }
      ],
      "stateMutability": "view",
      "type": "function"
    },
    {
      "inputs": [
        {
          "internalType": "uint256",
          "name": "serviceId",
          "type": "uint256"
        }
      ],
      "name": "payForAgentService",
      "outputs": [
        {
          "internalType": "uint256",
          "name": "paymentId",
          "type": "uint256"
        }
      ],
      "stateMutability": "payable",
      "type": "function"
    },
    {
      "inputs": [],
      "name": "paymentCount",
      "outputs": [
        {
          "internalType": "uint256",
          "name": "",
          "type": "uint256"
        }
      ],
      "stateMutability": "view",
      "type": "function"
    },
    {
      "inputs": [
        {
          "internalType": "uint256",
          "name": "",
          "type": "uint256"
        }
      ],
      "name": "paymentRecords",
      "outputs": [
        {
          "internalType": "address",
          "name": "originator",
          "type": "address"
        },
        {
          "internalType": "string",
          "name": "originatorJurisdiction",
          "type": "string"
        },
        {
          "internalType": "uint256",
          "name": "originatorKYCTier",
          "type": "uint256"
        },
        {
          "internalType": "address",
          "name": "beneficiary",
          "type": "address"
        },
        {
          "internalType": "string",
          "name": "beneficiaryName",
          "type": "string"
        },
        {
          "internalType": "uint256",
          "name": "amount",
          "type": "uint256"
        },
        {
          "internalType": "uint256",
          "name": "timestamp",
          "type": "uint256"
        },
        {
          "internalType": "uint256",
          "name": "agentServiceId",
          "type": "uint256"
        },
        {
          "internalType": "string",
          "name": "agentName",
          "type": "string"
        },
        {
          "internalType": "string",
          "name": "hederaTopicId",
          "type": "string"
        },
        {
          "internalType": "string",
          "name": "executionHash",
          "type": "string"
        },
        {
          "internalType": "string",
          "name": "purposeOfPayment",
          "type": "string"
        },
        {
          "internalType": "enum ADIAgentPayments.PaymentStatus",
          "name": "status",
          "type": "uint8"
        }
      ],
      "stateMutability": "view",
      "type": "function"
    },
    {
      "inputs": [
        {
          "internalType": "uint256",
          "name": "paymentId",
          "type": "uint256"
        },
        {
          "internalType": "string",
          "name": "hederaTopicId",
          "type": "string"
        },
        {
          "internalType": "string",
          "name": "executionHash",
          "type": "string"
        }
      ],
      "name": "recordExecutionReceipt",
      "outputs": [],
      "stateMutability": "nonpayable",
      "type": "function"
    },
    {
      "inputs": [
        {
          "internalType": "uint256",
          "name": "paymentId",
          "type": "uint256"
        }
      ],
      "name": "refundPayment",
      "outputs": [],
      "stateMutability": "nonpayable",
      "type": "function"
    },
    {
      "inputs": [
        {
          "internalType": "string",
          "name": "agentName",
          "type": "string"
        },
        {
          "internalType": "uint256",
          "name": "priceADI",
          "type": "uint256"
        },
        {
          "internalType": "string",
          "name": "description",
          "type": "string"
        },
        {
          "internalType": "uint256",
          "name": "minKYCTier",
          "type": "uint256"
        }
      ],
      "name": "registerAgentService",
      "outputs": [
        {
          "internalType": "uint256",
          "name": "serviceId",
          "type": "uint256"
        }
      ],
      "stateMutability": "nonpayable",
      "type": "function"
    },
    {
      "inputs": [
        {
          "internalType": "address",
          "name": "user",
          "type": "address"
        }
      ],
      "name": "revokeKYC",
      "outputs": [],
      "stateMutability": "nonpayable",
      "type": "function"
    },
    {
      "inputs": [],
      "name": "serviceCount",
      "outputs": [
        {
          "internalType": "uint256",
          "name": "",
          "type": "uint256"
        }
      ],
      "stateMutability": "view",
      "type": "function"
    },
    {
      "inputs": [
        {
          "internalType": "address",
          "name": "_officer",
          "type": "address"
        }
      ],
      "name": "setComplianceOfficer",
      "outputs": [],
      "stateMutability": "nonpayable",
      "type": "function"
    },
    {
      "inputs": [
        {
          "internalType": "address",
          "name": "_treasury",
          "type": "address"
        }
      ],
      "name": "setTreasury",
      "outputs": [],
      "stateMutability": "nonpayable",
      "type": "function"
    },
    {
      "inputs": [],
      "name": "totalKYCUsers",
      "outputs": [
        {
          "internalType": "uint256",
          "name": "",
          "type": "uint256"
        }
      ],
      "stateMutability": "view",
      "type": "function"
    },
    {
      "inputs": [],
      "name": "totalPayments",
      "outputs": [
        {
          "internalType": "uint256",
          "name": "",
          "type": "uint256"
        }
      ],
      "stateMutability": "view",
      "type": "function"
    },
    {
      "inputs": [],
      "name": "totalVolumeADI",
      "outputs": [
        {
          "internalType": "uint256",
          "name": "",
          "type": "uint256"
        }
      ],
      "stateMutability": "view",
      "type": "function"
    },
    {
      "inputs": [
        {
          "internalType": "uint256",
          "name": "serviceId",
          "type": "uint256"
        },
        {
          "internalType": "uint256",
          "name": "newPriceADI",
          "type": "uint256"
        },
        {
          "internalType": "bool",
          "name": "active",
          "type": "bool"
        }
      ],
      "name": "updateAgentService",
      "outputs": [],
      "stateMutability": "nonpayable",
      "type": "function"
    },
    {
      "inputs": [
        {
          "internalType": "address",
          "name": "",
          "type": "address"
        },
        {
          "internalType": "uint256",
          "name": "",
          "type": "uint256"
        }
      ],
      "name": "userPaymentHistory",
      "outputs": [
        {
          "internalType": "uint256",
          "name": "",
          "type": "uint256"
        }
      ],
      "stateMutability": "view",
      "type": "function"
    },
    {
      "inputs": [
        {
          "internalType": "address",
          "name": "user",
          "type": "address"
        },
        {
          "internalType": "string",
          "name": "jurisdiction",
          "type": "string"
        },
        {
          "internalType": "uint256",
          "name": "tier",
          "type": "uint256"
        },
        {
          "internalType": "string",
          "name": "complianceHash",
          "type": "string"
        }
      ],
      "name": "verifyKYC",
      "outputs": [],
      "stateMutability": "nonpayable",
      "type": "function"
    }
  ],
  "bytecode": "0x60806040523480156200001157600080fd5b506040516200390b3803806200390b83398101604081905262000034916200008e565b600080546001600160a01b03199081163317909155600280546001600160a01b0394851690831617905560018054929093169116179055620000c6565b80516001600160a01b03811681146200008957600080fd5b919050565b60008060408385031215620000a257600080fd5b620000ad8362000071565b9150620000bd6020840162000071565b90509250929050565b61383580620000d66000396000f3fe60806040526004361061019b5760003560e01c806373b36c97116100ec578063a5410a661161008a578063c4a56fc811610064578063c4a56fc814610503578063ca20ef3c14610523578063f0f4426014610543578063f63813f41461056357600080fd5b8063a5410a6614610476578063a7ba975b146104b6578063c1d446be146104d657600080fd5b8063850d2530116100c6578063850d2530146103b25780638da5cb5b146103d5578063987ee1561461040d578063a2ff542e1461043d57600080fd5b806373b36c971461032f5780637d181dc9146103615780637eb606e81461038157600080fd5b806337779e5a116101595780634fe3e174116101335780634fe3e174146102a0578063547c191a146102c05780635691fe63146102e05780636dfff73e1461031957600080fd5b806337779e5a1461024a57806339ba645b1461026057806340fe0fa31461028057600080fd5b80625b4487146101a057806306237526146101c95780630937e68a146101df578063122ebb95146101f55780632ec83fd11461021757806334b2aac31461022a575b600080fd5b3480156101ac57600080fd5b506101b6600c5481565b6040519081526020015b60405180910390f35b3480156101d557600080fd5b506101b660075481565b3480156101eb57600080fd5b506101b660095481565b34801561020157600080fd5b506102156102103660046129df565b610583565b005b6101b6610225366004612a1d565b61063c565b34801561023657600080fd5b50610215610245366004612a82565b610de1565b34801561025657600080fd5b506101b6600b5481565b34801561026c57600080fd5b5061021561027b366004612b62565b611194565b34801561028c57600080fd5b5061021561029b366004612bc6565b61123c565b3480156102ac57600080fd5b506101b66102bb366004612c50565b611523565b3480156102cc57600080fd5b506102156102db366004612b62565b6116a9565b3480156102ec57600080fd5b506103006102fb366004612a1d565b6116f5565b6040516101c09d9c9b9a99989796959493929190612d50565b34801561032557600080fd5b506101b660055481565b34801561033b57600080fd5b5061034f61034a366004612a1d565b611a9f565b6040516101c096959493929190612e2a565b34801561036d57600080fd5b5061021561037c366004612e73565b611beb565b34801561038d57600080fd5b506103a161039c366004612b62565b611d26565b6040516101c0959493929190612eed565b3480156103be57600080fd5b506103c7611e69565b6040516101c0929190612f6e565b3480156103e157600080fd5b506000546103f5906001600160a01b031681565b6040516001600160a01b0390911681526020016101c0565b34801561041957600080fd5b5061042d610428366004612b62565b61216d565b6040516101c09493929190613031565b34801561044957600080fd5b50600554600c54600b546007546040805194855260208501939093529183015260608201526080016101c0565b34801561048257600080fd5b506104a6610491366004612b62565b60036020526000908152604090205460ff1681565b60405190151581526020016101c0565b3480156104c257600080fd5b506101b66104d13660046130b9565b612390565b3480156104e257600080fd5b506104f66104f1366004612a1d565b6123c1565b6040516101c091906130e3565b34801561050f57600080fd5b506001546103f5906001600160a01b031681565b34801561052f57600080fd5b506002546103f5906001600160a01b031681565b34801561054f57600080fd5b5061021561055e366004612b62565b6127fa565b34801561056f57600080fd5b5061021561057e366004612a1d565b612846565b6000546001600160a01b031633146105b65760405162461bcd60e51b81526004016105ad9061321d565b60405180910390fd5b60075483106106115760405162461bcd60e51b815260206004820152602160248201527f4144494167656e745061796d656e74733a20696e76616c6964207365727669636044820152606560f81b60648201526084016105ad565b6000928352600660205260409092206001810191909155600201805460ff1916911515919091179055565b3360009081526003602052604081205460ff166106ab5760405162461bcd60e51b815260206004820152602760248201527f4144494167656e745061796d656e74733a2075736572206e6f74204b59432076604482015266195c9a599a595960ca1b60648201526084016105ad565b6000828152600660205260409020600281015460ff166107195760405162461bcd60e51b8152602060048201526024808201527f4144494167656e745061796d656e74733a2073657276696365206e6f742061636044820152637469766560e01b60648201526084016105ad565b806001015434101561077c5760405162461bcd60e51b815260206004820152602660248201527f4144494167656e745061796d656e74733a20696e73756666696369656e742070604482015265185e5b595b9d60d21b60648201526084016105ad565b60048082015433600090815260209290925260409091206003015410156107f05760405162461bcd60e51b815260206004820152602260248201527f4144494167656e745061796d656e74733a204b5943207469657220746f6f206c6044820152616f7760f01b60648201526084016105ad565b60008160010154346108029190613278565b60098054919250600061081483613291565b909155503360008181526004602090815260409182902082516101a081019093529282526001830180549497509293919290830191610852906132aa565b80601f016020809104026020016040519081016040528092919081815260200182805461087e906132aa565b80156108cb5780601f106108a0576101008083540402835291602001916108cb565b820191906000526020600020905b8154815290600101906020018083116108ae57829003601f168201915b5050505050815260200182600301548152602001600260009054906101000a90046001600160a01b03166001600160a01b031681526020016040518060400160405280601081526020016f1059d95b9d119a48141c9bdd1bd8dbdb60821b815250815260200184600101548152602001428152602001868152602001846000018054610956906132aa565b80601f0160208091040260200160405190810160405280929190818152602001828054610982906132aa565b80156109cf5780601f106109a4576101008083540402835291602001916109cf565b820191906000526020600020905b8154815290600101906020018083116109b257829003601f168201915b505050505081526020016040518060200160405280600081525081526020016040518060200160405280600081525081526020016040518060400160405280601e81526020017f4149204167656e74204465466920416e616c7973697320536572766963650000815250815260200160006002811115610a5157610a51612d18565b90526000858152600860209081526040909120825181546001600160a01b0319166001600160a01b03909116178155908201516001820190610a93908261334b565b506040820151600282015560608201516003820180546001600160a01b0319166001600160a01b0390921691909117905560808201516004820190610ad8908261334b565b5060a0820151600582015560c0820151600682015560e082015160078201556101008201516008820190610b0c908261334b565b506101208201516009820190610b22908261334b565b50610140820151600a820190610b38908261334b565b50610160820151600b820190610b4e908261334b565b50610180820151600c8201805460ff19166001836002811115610b7357610b73612d18565b021790555050336000908152600a602090815260408220805460018101825590835290822001869055600585018054925090610bae83613291565b91905055508260010154600b6000828254610bc9919061340b565b9091555050600c8054906000610bde83613291565b919050555084336001600160a01b0316857fcf6079ea8c5a5fa803b28ae2d7fbc74e99092bdd9a0463b1b2b9247c2de261008460010187600101548860000142604051610c2e949392919061349b565b60405180910390a4600254600184810154604051339388937f4125b88897df7f90940a1dc751b5e12661895d3c708e5a60e576776c8885c86693610c7f93918801926001600160a01b0316916134d8565b60405180910390a360025460018401546040516000926001600160a01b031691908381818185875af1925050503d8060008114610cd8576040519150601f19603f3d011682016040523d82523d6000602084013e610cdd565b606091505b5050905080610d385760405162461bcd60e51b815260206004820152602160248201527f4144494167656e745061796d656e74733a207472616e73666572206661696c656044820152601960fa1b60648201526084016105ad565b8215610dd857604051600090339085908381818185875af1925050503d8060008114610d80576040519150601f19603f3d011682016040523d82523d6000602084013e610d85565b606091505b5050905080610dd65760405162461bcd60e51b815260206004820152601f60248201527f4144494167656e745061796d656e74733a20726566756e64206661696c65640060448201526064016105ad565b505b50505050919050565b6001546001600160a01b0316331480610e0457506000546001600160a01b031633145b610e205760405162461bcd60e51b81526004016105ad9061356b565b8685148015610e2e57508683145b8015610e3957508681145b610e955760405162461bcd60e51b815260206004820152602760248201527f4144494167656e745061796d656e74733a206172726179206c656e677468206d6044820152660d2e6dac2e8c6d60cb1b60648201526084016105ad565b60005b8781101561118957600360008a8a84818110610eb657610eb66135bd565b9050602002016020810190610ecb9190612b62565b6001600160a01b0316815260208101919091526040016000205460ff16610f025760058054906000610efc83613291565b91905055505b6001600360008b8b85818110610f1a57610f1a6135bd565b9050602002016020810190610f2f9190612b62565b6001600160a01b031681526020808201929092526040908101600020805460ff191693151593909317909255815160a08101909252600182528101888884818110610f7c57610f7c6135bd565b9050602002810190610f8e91906135d3565b8080601f016020809104026020016040519081016040528093929190818152602001838380828437600092019190915250505090825250426020820152604001868684818110610fe057610fe06135bd565b905060200201358152602001848484818110610ffe57610ffe6135bd565b905060200281019061101091906135d3565b8080601f01602080910402602001604051908101604052809392919081815260200183838082843760009201829052509390945250600492508c90508b8581811061105d5761105d6135bd565b90506020020160208101906110729190612b62565b6001600160a01b031681526020808201929092526040016000208251815460ff19169015151781559082015160018201906110ad908261334b565b506040820151600282015560608201516003820155608082015160048201906110d6908261334b565b509050508888828181106110ec576110ec6135bd565b90506020020160208101906111019190612b62565b6001600160a01b03167fadd577a2b4b6c0932b4cfcf8185f6f3b55f46d3ac6c90cfdb234eb32222e995c88888481811061113d5761113d6135bd565b905060200281019061114f91906135d3565b888886818110611161576111616135bd565b90506020020135426040516111799493929190613643565b60405180910390a2600101610e98565b505050505050505050565b6001546001600160a01b03163314806111b757506000546001600160a01b031633145b6111d35760405162461bcd60e51b81526004016105ad9061356b565b6001600160a01b0381166000818152600360209081526040808320805460ff199081169091556004835292819020805490931690925590514281527f121dd6787122baec1ba6aa172161c164faed56501be17d853d0b2764768549f1910160405180910390a250565b6001546001600160a01b031633148061125f57506000546001600160a01b031633145b61127b5760405162461bcd60e51b81526004016105ad9061356b565b6001600160a01b0386166112d15760405162461bcd60e51b815260206004820152601e60248201527f4144494167656e745061796d656e74733a207a65726f2061646472657373000060448201526064016105ad565b600183101580156112e3575060038311155b61132f5760405162461bcd60e51b815260206004820152601e60248201527f4144494167656e745061796d656e74733a20696e76616c69642074696572000060448201526064016105ad565b600284146113935760405162461bcd60e51b815260206004820152602b60248201527f4144494167656e745061796d656e74733a20696e76616c6964206a757269736460448201526a696374696f6e20636f646560a81b60648201526084016105ad565b6001600160a01b0386166000908152600360209081526040918290208054600160ff1982168117909255835160a0810185529182528351601f890184900484028101840190945287845260ff16929091828101919089908990819084018382808284376000920191909152505050908252504260208083019190915260408083018890528051601f870183900483028101830190915285815260609092019190869086908190840183828082843760009201829052509390945250506001600160a01b038a1681526004602090815260409091208351815460ff191690151517815590830151909150600182019061148b908261334b565b506040820151600282015560608201516003820155608082015160048201906114b4908261334b565b50905050806114d357600580549060006114cd83613291565b91905055505b866001600160a01b03167fadd577a2b4b6c0932b4cfcf8185f6f3b55f46d3ac6c90cfdb234eb32222e995c878787426040516115129493929190613643565b60405180910390a250505050505050565b600080546001600160a01b0316331461154e5760405162461bcd60e51b81526004016105ad9061321d565b6007805490600061155e83613291565b909155506040805160e06020601f8b01819004028201810190925260c081018981529293509182918a908a9081908501838280828437600092019190915250505090825250602080820188905260016040808401919091528051601f8801839004830281018301909152868152606090920191908790879081908401838280828437600092018290525093855250505060208083018690526040928301829052848252600690522081518190611614908261334b565b5060208201516001820155604082015160028201805460ff19169115159190911790556060820151600382019061164b908261334b565b506080820151816004015560a08201518160050155905050807f09f287a98714fce2029e99f49711ba5fc3479df575bcd1765c5958b3058b9f1a8888886040516116979392919061366a565b60405180910390a29695505050505050565b6000546001600160a01b031633146116d35760405162461bcd60e51b81526004016105ad9061321d565b600180546001600160a01b0319166001600160a01b0392909216919091179055565b600860205260009081526040902080546001820180546001600160a01b039092169291611721906132aa565b80601f016020809104026020016040519081016040528092919081815260200182805461174d906132aa565b801561179a5780601f1061176f5761010080835404028352916020019161179a565b820191906000526020600020905b81548152906001019060200180831161177d57829003601f168201915b5050505060028301546003840154600485018054949592946001600160a01b039092169350906117c9906132aa565b80601f01602080910402602001604051908101604052809291908181526020018280546117f5906132aa565b80156118425780601f1061181757610100808354040283529160200191611842565b820191906000526020600020905b81548152906001019060200180831161182557829003601f168201915b505050505090806005015490806006015490806007015490806008018054611869906132aa565b80601f0160208091040260200160405190810160405280929190818152602001828054611895906132aa565b80156118e25780601f106118b7576101008083540402835291602001916118e2565b820191906000526020600020905b8154815290600101906020018083116118c557829003601f168201915b5050505050908060090180546118f7906132aa565b80601f0160208091040260200160405190810160405280929190818152602001828054611923906132aa565b80156119705780601f1061194557610100808354040283529160200191611970565b820191906000526020600020905b81548152906001019060200180831161195357829003601f168201915b50505050509080600a018054611985906132aa565b80601f01602080910402602001604051908101604052809291908181526020018280546119b1906132aa565b80156119fe5780601f106119d3576101008083540402835291602001916119fe565b820191906000526020600020905b8154815290600101906020018083116119e157829003601f168201915b50505050509080600b018054611a13906132aa565b80601f0160208091040260200160405190810160405280929190818152602001828054611a3f906132aa565b8015611a8c5780601f10611a6157610100808354040283529160200191611a8c565b820191906000526020600020905b815481529060010190602001808311611a6f57829003601f168201915b505050600c909301549192505060ff168d565b600660205260009081526040902080548190611aba906132aa565b80601f0160208091040260200160405190810160405280929190818152602001828054611ae6906132aa565b8015611b335780601f10611b0857610100808354040283529160200191611b33565b820191906000526020600020905b815481529060010190602001808311611b1657829003601f168201915b50505050600183015460028401546003850180549495929460ff909216935090611b5c906132aa565b80601f0160208091040260200160405190810160405280929190818152602001828054611b88906132aa565b8015611bd55780601f10611baa57610100808354040283529160200191611bd5565b820191906000526020600020905b815481529060010190602001808311611bb857829003601f168201915b5050505050908060040154908060050154905086565b6000546001600160a01b03163314611c155760405162461bcd60e51b81526004016105ad9061321d565b6009548510611c365760405162461bcd60e51b81526004016105ad9061368e565b600085815260086020526040812090600c82015460ff166002811115611c5e57611c5e612d18565b14611cab5760405162461bcd60e51b815260206004820152601d60248201527f4144494167656e745061796d656e74733a206e6f742070656e64696e6700000060448201526064016105ad565b60098101611cba8587836136cf565b50600a8101611cca8385836136cf565b50600c8101805460ff1916600190811790915560405187917f187da50b50b3e05c6f8134e65cad40b12469cca88b19984e041877fb35a23c9f91611d1691899189918991899190613790565b60405180910390a2505050505050565b6004602052600090815260409020805460018201805460ff9092169291611d4c906132aa565b80601f0160208091040260200160405190810160405280929190818152602001828054611d78906132aa565b8015611dc55780601f10611d9a57610100808354040283529160200191611dc5565b820191906000526020600020905b815481529060010190602001808311611da857829003601f168201915b505050505090806002015490806003015490806004018054611de6906132aa565b80601f0160208091040260200160405190810160405280929190818152602001828054611e12906132aa565b8015611e5f5780601f10611e3457610100808354040283529160200191611e5f565b820191906000526020600020905b815481529060010190602001808311611e4257829003601f168201915b5050505050905085565b6060806000805b600754811015611eaa5760008181526006602052604090206002015460ff1615611ea25781611e9e81613291565b9250505b600101611e70565b508067ffffffffffffffff811115611ec457611ec46132e4565b604051908082528060200260200182016040528015611eed578160200160208202803683370190505b5092508067ffffffffffffffff811115611f0957611f096132e4565b604051908082528060200260200182016040528015611f7557816020015b611f626040518060c0016040528060608152602001600081526020016000151581526020016060815260200160008152602001600081525090565b815260200190600190039081611f275790505b5091506000805b6007548110156121665760008181526006602052604090206002015460ff161561215e5780858381518110611fb357611fb36135bd565b602002602001018181525050600660008281526020019081526020016000206040518060c0016040529081600082018054611fed906132aa565b80601f0160208091040260200160405190810160405280929190818152602001828054612019906132aa565b80156120665780601f1061203b57610100808354040283529160200191612066565b820191906000526020600020905b81548152906001019060200180831161204957829003601f168201915b505050918352505060018201546020820152600282015460ff161515604082015260038201805460609092019161209c906132aa565b80601f01602080910402602001604051908101604052809291908181526020018280546120c8906132aa565b80156121155780601f106120ea57610100808354040283529160200191612115565b820191906000526020600020905b8154815290600101906020018083116120f857829003601f168201915b5050505050815260200160048201548152602001600582015481525050848381518110612144576121446135bd565b6020026020010181905250818061215a90613291565b9250505b600101611f7c565b5050509091565b60006121a36040518060a00160405280600015158152602001606081526020016000815260200160008152602001606081525090565b6001600160a01b03831660009081526003602090815260408083205460048352818420600a84528285208054845160a08101909552825460ff9081161515865260018401805460609892909616969495929492869284019190612205906132aa565b80601f0160208091040260200160405190810160405280929190818152602001828054612231906132aa565b801561227e5780601f106122535761010080835404028352916020019161227e565b820191906000526020600020905b81548152906001019060200180831161226157829003601f168201915b5050505050815260200160028201548152602001600382015481526020016004820180546122ab906132aa565b80601f01602080910402602001604051908101604052809291908181526020018280546122d7906132aa565b80156123245780601f106122f957610100808354040283529160200191612324565b820191906000526020600020905b81548152906001019060200180831161230757829003601f168201915b50505050508152505092508080548060200260200160405190810160405280929190818152602001828054801561237a57602002820191906000526020600020905b815481526020019060010190808311612366575b5050505050905093509350935093509193509193565b600a60205281600052604060002081815481106123ac57600080fd5b90600052602060002001600091509150505481565b6123c9612955565b60095482106123ea5760405162461bcd60e51b81526004016105ad9061368e565b60008281526008602090815260409182902082516101a0810190935280546001600160a01b031683526001810180549192840191612427906132aa565b80601f0160208091040260200160405190810160405280929190818152602001828054612453906132aa565b80156124a05780601f10612475576101008083540402835291602001916124a0565b820191906000526020600020905b81548152906001019060200180831161248357829003601f168201915b50505091835250506002820154602082015260038201546001600160a01b031660408201526004820180546060909201916124da906132aa565b80601f0160208091040260200160405190810160405280929190818152602001828054612506906132aa565b80156125535780601f1061252857610100808354040283529160200191612553565b820191906000526020600020905b81548152906001019060200180831161253657829003601f168201915b5050505050815260200160058201548152602001600682015481526020016007820154815260200160088201805461258a906132aa565b80601f01602080910402602001604051908101604052809291908181526020018280546125b6906132aa565b80156126035780601f106125d857610100808354040283529160200191612603565b820191906000526020600020905b8154815290600101906020018083116125e657829003601f168201915b5050505050815260200160098201805461261c906132aa565b80601f0160208091040260200160405190810160405280929190818152602001828054612648906132aa565b80156126955780601f1061266a57610100808354040283529160200191612695565b820191906000526020600020905b81548152906001019060200180831161267857829003601f168201915b50505050508152602001600a820180546126ae906132aa565b80601f01602080910402602001604051908101604052809291908181526020018280546126da906132aa565b80156127275780601f106126fc57610100808354040283529160200191612727565b820191906000526020600020905b81548152906001019060200180831161270a57829003601f168201915b50505050508152602001600b82018054612740906132aa565b80601f016020809104026020016040519081016040528092919081815260200182805461276c906132aa565b80156127b95780601f1061278e576101008083540402835291602001916127b9565b820191906000526020600020905b81548152906001019060200180831161279c57829003601f168201915b5050509183525050600c82015460209091019060ff1660028111156127e0576127e0612d18565b60028111156127f1576127f1612d18565b90525092915050565b6000546001600160a01b031633146128245760405162461bcd60e51b81526004016105ad9061321d565b600280546001600160a01b0319166001600160a01b0392909216919091179055565b6000546001600160a01b031633146128705760405162461bcd60e51b81526004016105ad9061321d565b60095481106128915760405162461bcd60e51b81526004016105ad9061368e565b600081815260086020526040812090600c82015460ff1660028111156128b9576128b9612d18565b146129065760405162461bcd60e51b815260206004820152601d60248201527f4144494167656e745061796d656e74733a206e6f742070656e64696e6700000060448201526064016105ad565b600c8101805460ff1916600290811790915560405183917f187da50b50b3e05c6f8134e65cad40b12469cca88b19984e041877fb35a23c9f9161294991906137d1565b60405180910390a25050565b604051806101a0016040528060006001600160a01b03168152602001606081526020016000815260200160006001600160a01b031681526020016060815260200160008152602001600081526020016000815260200160608152602001606081526020016060815260200160608152602001600060028111156129da576129da612d18565b905290565b6000806000606084860312156129f457600080fd5b833592506020840135915060408401358015158114612a1257600080fd5b809150509250925092565b600060208284031215612a2f57600080fd5b5035919050565b60008083601f840112612a4857600080fd5b50813567ffffffffffffffff811115612a6057600080fd5b6020830191508360208260051b8501011115612a7b57600080fd5b9250929050565b6000806000806000806000806080898b031215612a9e57600080fd5b883567ffffffffffffffff80821115612ab657600080fd5b612ac28c838d01612a36565b909a50985060208b0135915080821115612adb57600080fd5b612ae78c838d01612a36565b909850965060408b0135915080821115612b0057600080fd5b612b0c8c838d01612a36565b909650945060608b0135915080821115612b2557600080fd5b50612b328b828c01612a36565b999c989b5096995094979396929594505050565b80356001600160a01b0381168114612b5d57600080fd5b919050565b600060208284031215612b7457600080fd5b612b7d82612b46565b9392505050565b60008083601f840112612b9657600080fd5b50813567ffffffffffffffff811115612bae57600080fd5b602083019150836020828501011115612a7b57600080fd5b60008060008060008060808789031215612bdf57600080fd5b612be887612b46565b9550602087013567ffffffffffffffff80821115612c0557600080fd5b612c118a838b01612b84565b9097509550604089013594506060890135915080821115612c3157600080fd5b50612c3e89828a01612b84565b979a9699509497509295939492505050565b60008060008060008060808789031215612c6957600080fd5b863567ffffffffffffffff80821115612c8157600080fd5b612c8d8a838b01612b84565b9098509650602089013595506040890135915080821115612cad57600080fd5b50612cba89828a01612b84565b979a9699509497949695606090950135949350505050565b6000815180845260005b81811015612cf857602081850181015186830182015201612cdc565b506000602082860101526020601f19601f83011685010191505092915050565b634e487b7160e01b600052602160045260246000fd5b60038110612d4c57634e487b7160e01b600052602160045260246000fd5b9052565b6001600160a01b038e1681526101a060208201526000612d746101a083018f612cd2565b8d6040840152612d8f606084018e6001600160a01b03169052565b8281036080840152612da1818d612cd2565b90508a60a08401528960c08401528860e0840152828103610100840152612dc88189612cd2565b9050828103610120840152612ddd8188612cd2565b9050828103610140840152612df28187612cd2565b9050828103610160840152612e078186612cd2565b915050612e18610180830184612d2e565b9e9d5050505050505050505050505050565b60c081526000612e3d60c0830189612cd2565b87602084015286151560408401528281036060840152612e5d8187612cd2565b6080840195909552505060a00152949350505050565b600080600080600060608688031215612e8b57600080fd5b85359450602086013567ffffffffffffffff80821115612eaa57600080fd5b612eb689838a01612b84565b90965094506040880135915080821115612ecf57600080fd5b50612edc88828901612b84565b969995985093965092949392505050565b851515815260a060208201526000612f0860a0830187612cd2565b8560408401528460608401528281036080840152612f268185612cd2565b98975050505050505050565b60008151808452602080850194506020840160005b83811015612f6357815187529582019590820190600101612f47565b509495945050505050565b60006040808352612f826040840186612f32565b6020848203818601528186518084528284019150828160051b85010183890160005b8381101561302157601f19878403018552815160c08151818652612fca82870182612cd2565b91505087820151888601528982015115158a86015260608083015186830382880152612ff68382612cd2565b6080858101519089015260a09485015194909701939093525050509385019390850190600101612fa4565b50909a9950505050505050505050565b8415158152608060208201528351151560808201526000602085015160a080840152613061610120840182612cd2565b9050604086015160c0840152606086015160e08401526080860151607f19848303016101008501526130938282612cd2565b91505084604084015282810360608401526130ae8185612f32565b979650505050505050565b600080604083850312156130cc57600080fd5b6130d583612b46565b946020939093013593505050565b602081526130fd6020820183516001600160a01b03169052565b600060208301516101a080604085015261311b6101c0850183612cd2565b915060408501516060850152606085015161314160808601826001600160a01b03169052565b506080850151601f19808685030160a087015261315e8483612cd2565b935060a087015160c087015260c087015160e087015260e087015191506101008281880152808801519250506101208187860301818801526131a08584612cd2565b9450808801519250506101408187860301818801526131bf8584612cd2565b9450808801519250506101608187860301818801526131de8584612cd2565b9450808801519250506101808187860301818801526131fd8584612cd2565b9450808801519250505061321382860182612d2e565b5090949350505050565b60208082526025908201527f4144494167656e745061796d656e74733a2063616c6c6572206973206e6f742060408201526437bbb732b960d91b606082015260800190565b634e487b7160e01b600052601160045260246000fd5b8181038181111561328b5761328b613262565b92915050565b6000600182016132a3576132a3613262565b5060010190565b600181811c908216806132be57607f821691505b6020821081036132de57634e487b7160e01b600052602260045260246000fd5b50919050565b634e487b7160e01b600052604160045260246000fd5b601f821115613346576000816000526020600020601f850160051c810160208610156133235750805b601f850160051c820191505b818110156133425782815560010161332f565b5050505b505050565b815167ffffffffffffffff811115613365576133656132e4565b6133798161337384546132aa565b846132fa565b602080601f8311600181146133ae57600084156133965750858301515b600019600386901b1c1916600185901b178555613342565b600085815260208120601f198616915b828110156133dd578886015182559484019460019091019084016133be565b50858210156133fb5787850151600019600388901b60f8161c191681555b5050505050600190811b01905550565b8082018082111561328b5761328b613262565b6000815461342b816132aa565b808552602060018381168015613448576001811461346257613490565b60ff1985168884015283151560051b880183019550613490565b866000528260002060005b858110156134885781548a820186015290830190840161346d565b890184019650505b505050505092915050565b6080815260006134ae608083018761341e565b85602084015282810360408401526134c6818661341e565b91505082606083015295945050505050565b60a0815260006134eb60a083018661341e565b60018060a01b0385166020840152828103806040850152601082526f1059d95b9d119a48141c9bdd1bd8dbdb60821b602083015284606085015260408101608085015250601e60408201527f4149204167656e74204465466920416e616c7973697320536572766963650000606082015260808101915050949350505050565b60208082526032908201527f4144494167656e745061796d656e74733a2063616c6c6572206973206e6f742060408201527131b7b6b83634b0b731b29037b33334b1b2b960711b606082015260800190565b634e487b7160e01b600052603260045260246000fd5b6000808335601e198436030181126135ea57600080fd5b83018035915067ffffffffffffffff82111561360557600080fd5b602001915036819003821315612a7b57600080fd5b81835281816020850137506000828201602090810191909152601f909101601f19169091010190565b60608152600061365760608301868861361a565b6020830194909452506040015292915050565b60408152600061367e60408301858761361a565b9050826020830152949350505050565b60208082526021908201527f4144494167656e745061796d656e74733a20696e76616c6964207061796d656e6040820152601d60fa1b606082015260800190565b67ffffffffffffffff8311156136e7576136e76132e4565b6136fb836136f583546132aa565b836132fa565b6000601f84116001811461372f57600085156137175750838201355b600019600387901b1c1916600186901b178355613789565b600083815260209020601f19861690835b828110156137605786850135825560209485019460019092019101613740565b508682101561377d5760001960f88860031b161c19848701351681555b505060018560011b0183555b5050505050565b6060815260006137a460608301878961361a565b82810360208401526137b781868861361a565b9150506137c76040830184612d2e565b9695505050505050565b60608152600060608201526080602082015260006080820152600060a08201905061328b6040830184612d2e56fea26469706673582212202fe4038b0abd12e617433bfa16687cf00581c0bde4140e0bdbdee3b731ca1adc64736f6c63430008180033",
  "linkReferences": {},
  "deployedLinkReferences": {}
}