{"abi":[{"type":"constructor","inputs":[{"name":"_agentNFT","type":"address","internalType":"address"}],"stateMutability":"nonpayable"},{"type":"function","name":"afcMinReward","inputs":[],"outputs":[{"name":"","type":"uint256","internalType":"uint256"}],"stateMutability":"view"},{"type":"function","name":"afcRewardDivisor","inputs":[],"outputs":[{"name":"","type":"uint256","internalType":"uint256"}],"stateMutability":"view"},{"type":"function","name":"afcRewardRate","inputs":[],"outputs":[{"name":"","type":"uint256","internalType":"uint256"}],"stateMutability":"view"},{"type":"function","name":"agentHederaAccounts","inputs":[{"name":"","type":"uint256","internalType":"uint256"}],"outputs":[{"name":"","type":"string","internalType":"string"}],"stateMutability":"view"},{"type":"function","name":"agentNFT","inputs":[],"outputs":[{"name":"","type":"address","internalType":"contract IAgentNFT"}],"stateMutability":"view"},{"type":"function","name":"calculateAFCReward","inputs":[{"name":"pricePerCallWei","type":"uint256","internalType":"uint256"}],"outputs":[{"name":"reward","type":"uint256","internalType":"uint256"}],"stateMutability":"view"},{"type":"function","name":"getAgentFullConfig","inputs":[{"name":"tokenId","type":"uint256","internalType":"uint256"}],"outputs":[{"name":"agentHedera","type":"string","internalType":"string"},{"name":"ownerHedera","type":"string","internalType":"string"},{"name":"config","type":"tuple","internalType":"struct AgentRegistry.X402Config","components":[{"name":"enabled","type":"bool","internalType":"bool"},{"name":"priceAFC","type":"uint256","internalType":"uint256"},{"name":"priceUSDT","type":"uint256","internalType":"uint256"},{"name":"maxBudgetAFC","type":"uint256","internalType":"uint256"},{"name":"allowCrossAgent","type":"bool","internalType":"bool"}]}],"stateMutability":"view"},{"type":"function","name":"isX402Enabled","inputs":[{"name":"tokenId","type":"uint256","internalType":"uint256"}],"outputs":[{"name":"","type":"bool","internalType":"bool"}],"stateMutability":"view"},{"type":"function","name":"owner","inputs":[],"outputs":[{"name":"","type":"address","internalType":"address"}],"stateMutability":"view"},{"type":"function","name":"ownerHederaAccounts","inputs":[{"name":"","type":"uint256","internalType":"uint256"}],"outputs":[{"name":"","type":"string","internalType":"string"}],"stateMutability":"view"},{"type":"function","name":"renounceOwnership","inputs":[],"outputs":[],"stateMutability":"nonpayable"},{"type":"function","name":"setAFCRewardRate","inputs":[{"name":"_rate","type":"uint256","internalType":"uint256"},{"name":"_divisor","type":"uint256","internalType":"uint256"},{"name":"_minReward","type":"uint256","internalType":"uint256"}],"outputs":[],"stateMutability":"nonpayable"},{"type":"function","name":"setHederaAccounts","inputs":[{"name":"tokenId","type":"uint256","internalType":"uint256"},{"name":"_agentHederaAccount","type":"string","internalType":"string"},{"name":"_ownerHederaAccount","type":"string","internalType":"string"}],"outputs":[],"stateMutability":"nonpayable"},{"type":"function","name":"setX402Config","inputs":[{"name":"tokenId","type":"uint256","internalType":"uint256"},{"name":"config","type":"tuple","internalType":"struct AgentRegistry.X402Config","components":[{"name":"enabled","type":"bool","internalType":"bool"},{"name":"priceAFC","type":"uint256","internalType":"uint256"},{"name":"priceUSDT","type":"uint256","internalType":"uint256"},{"name":"maxBudgetAFC","type":"uint256","internalType":"uint256"},{"name":"allowCrossAgent","type":"bool","internalType":"bool"}]}],"outputs":[],"stateMutability":"nonpayable"},{"type":"function","name":"setX402Enabled","inputs":[{"name":"tokenId","type":"uint256","internalType":"uint256"},{"name":"enabled","type":"bool","internalType":"bool"}],"outputs":[],"stateMutability":"nonpayable"},{"type":"function","name":"setX402PriceAFC","inputs":[{"name":"tokenId","type":"uint256","internalType":"uint256"},{"name":"priceAFC","type":"uint256","internalType":"uint256"}],"outputs":[],"stateMutability":"nonpayable"},{"type":"function","name":"transferOwnership","inputs":[{"name":"newOwner","type":"address","internalType":"address"}],"outputs":[],"stateMutability":"nonpayable"},{"type":"function","name":"x402Configs","inputs":[{"name":"","type":"uint256","internalType":"uint256"}],"outputs":[{"name":"enabled","type":"bool","internalType":"bool"},{"name":"priceAFC","type":"uint256","internalType":"uint256"},{"name":"priceUSDT","type":"uint256","internalType":"uint256"},{"name":"maxBudgetAFC","type":"uint256","internalType":"uint256"},{"name":"allowCrossAgent","type":"bool","internalType":"bool"}],"stateMutability":"view"},{"type":"event","name":"AFCRewardRateUpdated","inputs":[{"name":"rate","type":"uint256","indexed":false,"internalType":"uint256"},{"name":"divisor","type":"uint256","indexed":false,"internalType":"uint256"},{"name":"minReward","type":"uint256","indexed":false,"internalType":"uint256"}],"anonymous":false},{"type":"event","name":"HederaAccountSet","inputs":[{"name":"tokenId","type":"uint256","indexed":true,"internalType":"uint256"},{"name":"agentHederaAccount","type":"string","indexed":false,"internalType":"string"},{"name":"ownerHederaAccount","type":"string","indexed":false,"internalType":"string"}],"anonymous":false},{"type":"event","name":"OwnershipTransferred","inputs":[{"name":"previousOwner","type":"address","indexed":true,"internalType":"address"},{"name":"newOwner","type":"address","indexed":true,"internalType":"address"}],"anonymous":false},{"type":"event","name":"X402ConfigUpdated","inputs":[{"name":"tokenId","type":"uint256","indexed":true,"internalType":"uint256"},{"name":"enabled","type":"bool","indexed":false,"internalType":"bool"},{"name":"priceAFC","type":"uint256","indexed":false,"internalType":"uint256"},{"name":"priceUSDT","type":"uint256","indexed":false,"internalType":"uint256"},{"name":"maxBudgetAFC","type":"uint256","indexed":false,"internalType":"uint256"},{"name":"allowCrossAgent","type":"bool","indexed":false,"internalType":"bool"}],"anonymous":false},{"type":"error","name":"OwnableInvalidOwner","inputs":[{"name":"owner","type":"address","internalType":"address"}]},{"type":"error","name":"OwnableUnauthorizedAccount","inputs":[{"name":"account","type":"address","internalType":"address"}]}],"bytecode":{"object":"0x60a060405260646004556103e8600555600160065534801562000020575f80fd5b50604051620021d2380380620021d283398181016040528101906200004691906200022d565b335f73ffffffffffffffffffffffffffffffffffffffff168173ffffffffffffffffffffffffffffffffffffffff1603620000ba575f6040517f1e4fbdf7000000000000000000000000000000000000000000000000000000008152600401620000b191906200026e565b60405180910390fd5b620000cb816200010760201b60201c565b508073ffffffffffffffffffffffffffffffffffffffff1660808173ffffffffffffffffffffffffffffffffffffffff16815250505062000289565b5f805f9054906101000a900473ffffffffffffffffffffffffffffffffffffffff169050815f806101000a81548173ffffffffffffffffffffffffffffffffffffffff021916908373ffffffffffffffffffffffffffffffffffffffff1602179055508173ffffffffffffffffffffffffffffffffffffffff168173ffffffffffffffffffffffffffffffffffffffff167f8be0079c531659141344cd1fd0a4f28419497f9722a3daafe3b4186f6b6457e060405160405180910390a35050565b5f80fd5b5f73ffffffffffffffffffffffffffffffffffffffff82169050919050565b5f620001f782620001cc565b9050919050565b6200020981620001eb565b811462000214575f80fd5b50565b5f815190506200022781620001fe565b92915050565b5f60208284031215620002455762000244620001c8565b5b5f620002548482850162000217565b91505092915050565b6200026881620001eb565b82525050565b5f602082019050620002835f8301846200025d565b92915050565b608051611f14620002be5f395f81816103890152818161057401528181610732015281816108640152610c250152611f145ff3fe608060405234801561000f575f80fd5b5060043610610114575f3560e01c806389bc558a116100a0578063b21a72531161006f578063b21a7253146102bc578063cd0ec60e146102ee578063d7b5641b1461031e578063ea564f291461034e578063f2fde38b1461036a57610114565b806389bc558a146102465780638da5cb5b146102645780639a7e42fc146102825780639c64699c146102a057610114565b806336ecc6ee116100e757806336ecc6ee146101a25780633fd773e9146101d25780636516c31a146101f0578063715018a61461022057806382d7199d1461022a57610114565b8063016c3841146101185780630453ef0b146101345780632b008cec1461015257806332a4565114610186575b5f80fd5b610132600480360381019061012d9190611098565b610386565b005b61013c610521565b60405161014991906110e5565b60405180910390f35b61016c600480360381019061016791906110fe565b610527565b60405161017d959493929190611143565b60405180910390f35b6101a0600480360381019061019b9190611194565b610571565b005b6101bc60048036038101906101b791906110fe565b610695565b6040516101c9919061125c565b60405180910390f35b6101da610730565b6040516101e791906112f6565b60405180910390f35b61020a600480360381019061020591906110fe565b610754565b604051610217919061130f565b60405180910390f35b61022861077c565b005b610244600480360381019061023f9190611328565b61078f565b005b61024e61082e565b60405161025b91906110e5565b60405180910390f35b61026c610834565b6040516102799190611398565b60405180910390f35b61028a61085b565b60405161029791906110e5565b60405180910390f35b6102ba60048036038101906102b591906113db565b610861565b005b6102d660048036038101906102d191906110fe565b610996565b6040516102e59392919061149d565b60405180910390f35b610308600480360381019061030391906110fe565b610b54565b60405161031591906110e5565b60405180910390f35b610338600480360381019061033391906110fe565b610b87565b604051610345919061125c565b60405180910390f35b61036860048036038101906103639190611541565b610c22565b005b610384600480360381019061037f91906115fc565b610e3a565b005b817f000000000000000000000000000000000000000000000000000000000000000073ffffffffffffffffffffffffffffffffffffffff16636352211e826040518263ffffffff1660e01b81526004016103e091906110e5565b602060405180830381865afa1580156103fb573d5f803e3d5ffd5b505050506040513d601f19601f8201168201806040525081019061041f919061163b565b73ffffffffffffffffffffffffffffffffffffffff163373ffffffffffffffffffffffffffffffffffffffff161461048c576040517f08c379a0000000000000000000000000000000000000000000000000000000008152600401610483906116d6565b60405180910390fd5b8160035f8581526020019081526020015f2081816104aa91906118bd565b905050827f3199276c3ee8cc8e4a859be3f97b1aa86bac139c4d1128ac78528a4d9a03ad1f835f0160208101906104e191906118cb565b84602001358560400135866060013587608001602081019061050391906118cb565b604051610514959493929190611143565b60405180910390a2505050565b60045481565b6003602052805f5260405f205f91509050805f015f9054906101000a900460ff1690806001015490806002015490806003015490806004015f9054906101000a900460ff16905085565b817f000000000000000000000000000000000000000000000000000000000000000073ffffffffffffffffffffffffffffffffffffffff16636352211e826040518263ffffffff1660e01b81526004016105cb91906110e5565b602060405180830381865afa1580156105e6573d5f803e3d5ffd5b505050506040513d601f19601f8201168201806040525081019061060a919061163b565b73ffffffffffffffffffffffffffffffffffffffff163373ffffffffffffffffffffffffffffffffffffffff1614610677576040517f08c379a000000000000000000000000000000000000000000000000000000000815260040161066e906116d6565b60405180910390fd5b8160035f8581526020019081526020015f2060010181905550505050565b6001602052805f5260405f205f9150905080546106b190611923565b80601f01602080910402602001604051908101604052809291908181526020018280546106dd90611923565b80156107285780601f106106ff57610100808354040283529160200191610728565b820191905f5260205f20905b81548152906001019060200180831161070b57829003601f168201915b505050505081565b7f000000000000000000000000000000000000000000000000000000000000000081565b5f60035f8381526020019081526020015f205f015f9054906101000a900460ff169050919050565b610784610ebe565b61078d5f610f45565b565b610797610ebe565b5f82116107d9576040517f08c379a00000000000000000000000000000000000000000000000000000000081526004016107d0906119c3565b60405180910390fd5b8260048190555081600581905550806006819055507f3d595a3715f0dcb2dbd6d29979a7a6a316eefc83661488f29ea6ab6b5c6426a4838383604051610821939291906119e1565b60405180910390a1505050565b60055481565b5f805f9054906101000a900473ffffffffffffffffffffffffffffffffffffffff16905090565b60065481565b817f000000000000000000000000000000000000000000000000000000000000000073ffffffffffffffffffffffffffffffffffffffff16636352211e826040518263ffffffff1660e01b81526004016108bb91906110e5565b602060405180830381865afa1580156108d6573d5f803e3d5ffd5b505050506040513d601f19601f820116820180604052508101906108fa919061163b565b73ffffffffffffffffffffffffffffffffffffffff163373ffffffffffffffffffffffffffffffffffffffff1614610967576040517f08c379a000000000000000000000000000000000000000000000000000000000815260040161095e906116d6565b60405180910390fd5b8160035f8581526020019081526020015f205f015f6101000a81548160ff021916908315150217905550505050565b6060806109a161100d565b60015f8581526020019081526020015f2060025f8681526020019081526020015f2060035f8781526020019081526020015f208280546109e090611923565b80601f0160208091040260200160405190810160405280929190818152602001828054610a0c90611923565b8015610a575780601f10610a2e57610100808354040283529160200191610a57565b820191905f5260205f20905b815481529060010190602001808311610a3a57829003601f168201915b50505050509250818054610a6a90611923565b80601f0160208091040260200160405190810160405280929190818152602001828054610a9690611923565b8015610ae15780601f10610ab857610100808354040283529160200191610ae1565b820191905f5260205f20905b815481529060010190602001808311610ac457829003601f168201915b50505050509150806040518060a00160405290815f82015f9054906101000a900460ff16151515158152602001600182015481526020016002820154815260200160038201548152602001600482015f9054906101000a900460ff16151515158152505090509250925092509193909250565b5f60055460045483610b669190611a43565b610b709190611ab1565b9050600654811015610b825760065490505b919050565b6002602052805f5260405f205f915090508054610ba390611923565b80601f0160208091040260200160405190810160405280929190818152602001828054610bcf90611923565b8015610c1a5780601f10610bf157610100808354040283529160200191610c1a565b820191905f5260205f20905b815481529060010190602001808311610bfd57829003601f168201915b505050505081565b847f000000000000000000000000000000000000000000000000000000000000000073ffffffffffffffffffffffffffffffffffffffff16636352211e826040518263ffffffff1660e01b8152600401610c7c91906110e5565b602060405180830381865afa158015610c97573d5f803e3d5ffd5b505050506040513d601f19601f82011682018060405250810190610cbb919061163b565b73ffffffffffffffffffffffffffffffffffffffff163373ffffffffffffffffffffffffffffffffffffffff1614610d28576040517f08c379a0000000000000000000000000000000000000000000000000000000008152600401610d1f906116d6565b60405180910390fd5b5f8585905011610d6d576040517f08c379a0000000000000000000000000000000000000000000000000000000008152600401610d6490611b51565b60405180910390fd5b5f8383905011610db2576040517f08c379a0000000000000000000000000000000000000000000000000000000008152600401610da990611bdf565b60405180910390fd5b848460015f8981526020019081526020015f209182610dd2929190611d9e565b50828260025f8981526020019081526020015f209182610df3929190611d9e565b50857fd436dddde84efbfa494db342b32134a0127343ff7d5dcfad3c44af1f3745f18886868686604051610e2a9493929190611ea5565b60405180910390a2505050505050565b610e42610ebe565b5f73ffffffffffffffffffffffffffffffffffffffff168173ffffffffffffffffffffffffffffffffffffffff1603610eb2575f6040517f1e4fbdf7000000000000000000000000000000000000000000000000000000008152600401610ea99190611398565b60405180910390fd5b610ebb81610f45565b50565b610ec6611006565b73ffffffffffffffffffffffffffffffffffffffff16610ee4610834565b73ffffffffffffffffffffffffffffffffffffffff1614610f4357610f07611006565b6040517f118cdaa7000000000000000000000000000000000000000000000000000000008152600401610f3a9190611398565b60405180910390fd5b565b5f805f9054906101000a900473ffffffffffffffffffffffffffffffffffffffff169050815f806101000a81548173ffffffffffffffffffffffffffffffffffffffff021916908373ffffffffffffffffffffffffffffffffffffffff1602179055508173ffffffffffffffffffffffffffffffffffffffff168173ffffffffffffffffffffffffffffffffffffffff167f8be0079c531659141344cd1fd0a4f28419497f9722a3daafe3b4186f6b6457e060405160405180910390a35050565b5f33905090565b6040518060a001604052805f151581526020015f81526020015f81526020015f81526020015f151581525090565b5f80fd5b5f80fd5b5f819050919050565b61105581611043565b811461105f575f80fd5b50565b5f813590506110708161104c565b92915050565b5f80fd5b5f60a0828403121561108f5761108e611076565b5b81905092915050565b5f8060c083850312156110ae576110ad61103b565b5b5f6110bb85828601611062565b92505060206110cc8582860161107a565b9150509250929050565b6110df81611043565b82525050565b5f6020820190506110f85f8301846110d6565b92915050565b5f602082840312156111135761111261103b565b5b5f61112084828501611062565b91505092915050565b5f8115159050919050565b61113d81611129565b82525050565b5f60a0820190506111565f830188611134565b61116360208301876110d6565b61117060408301866110d6565b61117d60608301856110d6565b61118a6080830184611134565b9695505050505050565b5f80604083850312156111aa576111a961103b565b5b5f6111b785828601611062565b92505060206111c885828601611062565b9150509250929050565b5f81519050919050565b5f82825260208201905092915050565b5f5b838110156112095780820151818401526020810190506111ee565b5f8484015250505050565b5f601f19601f8301169050919050565b5f61122e826111d2565b61123881856111dc565b93506112488185602086016111ec565b61125181611214565b840191505092915050565b5f6020820190508181035f8301526112748184611224565b905092915050565b5f73ffffffffffffffffffffffffffffffffffffffff82169050919050565b5f819050919050565b5f6112be6112b96112b48461127c565b61129b565b61127c565b9050919050565b5f6112cf826112a4565b9050919050565b5f6112e0826112c5565b9050919050565b6112f0816112d6565b82525050565b5f6020820190506113095f8301846112e7565b92915050565b5f6020820190506113225f830184611134565b92915050565b5f805f6060848603121561133f5761133e61103b565b5b5f61134c86828701611062565b935050602061135d86828701611062565b925050604061136e86828701611062565b9150509250925092565b5f6113828261127c565b9050919050565b61139281611378565b82525050565b5f6020820190506113ab5f830184611389565b92915050565b6113ba81611129565b81146113c4575f80fd5b50565b5f813590506113d5816113b1565b92915050565b5f80604083850312156113f1576113f061103b565b5b5f6113fe85828601611062565b925050602061140f858286016113c7565b9150509250929050565b61142281611129565b82525050565b61143181611043565b82525050565b60a082015f82015161144b5f850182611419565b50602082015161145e6020850182611428565b5060408201516114716040850182611428565b5060608201516114846060850182611428565b5060808201516114976080850182611419565b50505050565b5f60e0820190508181035f8301526114b58186611224565b905081810360208301526114c98185611224565b90506114d86040830184611437565b949350505050565b5f80fd5b5f80fd5b5f80fd5b5f8083601f840112611501576115006114e0565b5b8235905067ffffffffffffffff81111561151e5761151d6114e4565b5b60208301915083600182028301111561153a576115396114e8565b5b9250929050565b5f805f805f6060868803121561155a5761155961103b565b5b5f61156788828901611062565b955050602086013567ffffffffffffffff8111156115885761158761103f565b5b611594888289016114ec565b9450945050604086013567ffffffffffffffff8111156115b7576115b661103f565b5b6115c3888289016114ec565b92509250509295509295909350565b6115db81611378565b81146115e5575f80fd5b50565b5f813590506115f6816115d2565b92915050565b5f602082840312156116115761161061103b565b5b5f61161e848285016115e8565b91505092915050565b5f81519050611635816115d2565b92915050565b5f602082840312156116505761164f61103b565b5b5f61165d84828501611627565b91505092915050565b7f4167656e7452656769737472793a2063616c6c6572206973206e6f74206167655f8201527f6e74206f776e6572000000000000000000000000000000000000000000000000602082015250565b5f6116c06028836111dc565b91506116cb82611666565b604082019050919050565b5f6020820190508181035f8301526116ed816116b4565b9050919050565b5f8135611700816113b1565b80915050919050565b5f815f1b9050919050565b5f60ff61172084611709565b9350801983169250808416831791505092915050565b5f61174082611129565b9050919050565b5f819050919050565b61175982611736565b61176c61176582611747565b8354611714565b8255505050565b5f813561177f8161104c565b80915050919050565b5f7fffffffffffffffffffffffffffffffffffffffffffffffffffffffffffffffff6117b384611709565b9350801983169250808416831791505092915050565b5f6117e36117de6117d984611043565b61129b565b611043565b9050919050565b5f819050919050565b6117fc826117c9565b61180f611808826117ea565b8354611788565b8255505050565b5f81015f830180611826816116f4565b90506118328184611750565b50505060018101602083018061184781611773565b905061185381846117f3565b50505060028101604083018061186881611773565b905061187481846117f3565b50505060038101606083018061188981611773565b905061189581846117f3565b5050506004810160808301806118aa816116f4565b90506118b68184611750565b5050505050565b6118c78282611816565b5050565b5f602082840312156118e0576118df61103b565b5b5f6118ed848285016113c7565b91505092915050565b7f4e487b71000000000000000000000000000000000000000000000000000000005f52602260045260245ffd5b5f600282049050600182168061193a57607f821691505b60208210810361194d5761194c6118f6565b5b50919050565b7f4167656e7452656769737472793a2064697669736f722063616e6e6f742062655f8201527f207a65726f000000000000000000000000000000000000000000000000000000602082015250565b5f6119ad6025836111dc565b91506119b882611953565b604082019050919050565b5f6020820190508181035f8301526119da816119a1565b9050919050565b5f6060820190506119f45f8301866110d6565b611a0160208301856110d6565b611a0e60408301846110d6565b949350505050565b7f4e487b71000000000000000000000000000000000000000000000000000000005f52601160045260245ffd5b5f611a4d82611043565b9150611a5883611043565b9250828202611a6681611043565b91508282048414831517611a7d57611a7c611a16565b5b5092915050565b7f4e487b71000000000000000000000000000000000000000000000000000000005f52601260045260245ffd5b5f611abb82611043565b9150611ac683611043565b925082611ad657611ad5611a84565b5b828204905092915050565b7f4167656e7452656769737472793a20656d707479206167656e74206163636f755f8201527f6e74000000000000000000000000000000000000000000000000000000000000602082015250565b5f611b3b6022836111dc565b9150611b4682611ae1565b604082019050919050565b5f6020820190508181035f830152611b6881611b2f565b9050919050565b7f4167656e7452656769737472793a20656d707479206f776e6572206163636f755f8201527f6e74000000000000000000000000000000000000000000000000000000000000602082015250565b5f611bc96022836111dc565b9150611bd482611b6f565b604082019050919050565b5f6020820190508181035f830152611bf681611bbd565b9050919050565b5f82905092915050565b7f4e487b71000000000000000000000000000000000000000000000000000000005f52604160045260245ffd5b5f819050815f5260205f209050919050565b5f6020601f8301049050919050565b5f82821b905092915050565b5f60088302611c907fffffffffffffffffffffffffffffffffffffffffffffffffffffffffffffffff82611c55565b611c9a8683611c55565b95508019841693508086168417925050509392505050565b611cbb836117c9565b611ccf611cc7826117ea565b848454611c61565b825550505050565b5f90565b611ce3611cd7565b611cee818484611cb2565b505050565b5b81811015611d1157611d065f82611cdb565b600181019050611cf4565b5050565b601f821115611d5657611d2781611c34565b611d3084611c46565b81016020851015611d3f578190505b611d53611d4b85611c46565b830182611cf3565b50505b505050565b5f82821c905092915050565b5f611d765f1984600802611d5b565b1980831691505092915050565b5f611d8e8383611d67565b9150826002028217905092915050565b611da88383611bfd565b67ffffffffffffffff811115611dc157611dc0611c07565b5b611dcb8254611923565b611dd6828285611d15565b5f601f831160018114611e03575f8415611df1578287013590505b611dfb8582611d83565b865550611e62565b601f198416611e1186611c34565b5f5b82811015611e3857848901358255600182019150602085019450602081019050611e13565b86831015611e555784890135611e51601f891682611d67565b8355505b6001600288020188555050505b50505050505050565b828183375f83830152505050565b5f611e8483856111dc565b9350611e91838584611e6b565b611e9a83611214565b840190509392505050565b5f6040820190508181035f830152611ebe818688611e79565b90508181036020830152611ed3818486611e79565b90509594505050505056fea264697066735822122085b4eeacb762f4a92e005e21157d2546a4862d884e7f34d2a8d1d811242496e264736f6c63430008180033","linkReferences":{}},"methodIdentifiers":{"afcMinReward()":"9a7e42fc","afcRewardDivisor()":"89bc558a","afcRewardRate()":"0453ef0b","agentHederaAccounts(uint256)":"36ecc6ee","agentNFT()":"3fd773e9","calculateAFCReward(uint256)":"cd0ec60e","getAgentFullConfig(uint256)":"b21a7253","isX402Enabled(uint256)":"6516c31a","owner()":"8da5cb5b","ownerHederaAccounts(uint256)":"d7b5641b","renounceOwnership()":"715018a6","setAFCRewardRate(uint256,uint256,uint256)":"82d7199d","setHederaAccounts(uint256,string,string)":"ea564f29","setX402Config(uint256,(bool,uint256,uint256,uint256,bool))":"016c3841","setX402Enabled(uint256,bool)":"9c64699c","setX402PriceAFC(uint256,uint256)":"32a45651","transferOwnership(address)":"f2fde38b","x402Configs(uint256)":"2b008cec"},"id":42}